:100000000EC01DC01CC01BC01AC019C018C017C02C
:1000100016C015C014C013C012C011C010C01124E6
:100020001FBECFE5D2E0DEBFCDBF11E0A0E6B0E05D
:1000300001C01D92A538B107E1F752D1EEC1E0CF62
:10004000C49ABC98C49A81E0B49980E0BC9A90911B
:10005000730094FDC4980895C39A089598E087FFAB
:1000600002C0C09A01C0C098C29A880FB19B02C05A
:10007000816001C08E7FC298915089F70895CF9218
:10008000DF92EF92FF920F931F93182F042FF52EFC
:10009000E62ED72E87FF09C087E740E050E0BA017F
:1000A000EEDFC82E8230B8F51F77D6DF8FEFD6DFB0
:1000B000C3988FEFD3DF812F8064D0DF8D2DCEDF0B
:1000C0008E2DCCDF8F2DCADF802FC8DF103421F0BA
:1000D000183421F081E003C085E901C087E8BEDF64
:1000E0000AE08FEFBBDFC82E87FF02C00150C9F7BF
:1000F000113589F01A3779F0193469F01D3459F047
:100100001A3449F0183439F01A3629F01B3519F031
:10011000A3DF8FEFA3DF8C2D1F910F91FF90EF9046
:10012000DF90CF900895CF93DF931092640094DF17
:10013000CAE0D0E08FEF92DF2197E1F7CAE0D0E08C
:1001400080E440E050E0BA019ADF813021F021974D
:10015000B9F781E040C088E44AEA51E060E070E02D
:100160008EDF8130A1F4C4E0D0E08FEF77DF2197FC
:10017000E1F7C0E2DEE489EE40E050E060E070E4E8
:100180007EDF882311F02197B1F782E01FC08AE754
:1001900040E050E0BA0173DF8130D1F4C4E0D0E038
:1001A0008FEF5CDF2197E1F7C0E2DEE481E440E01D
:1001B00050E0BA0164DF882311F02197B9F780E598
:1001C00040E052E060E070E05ADF81E0809364003C
:1001D0008FEF44DF80E0DF91CF9108951F93CF939D
:1001E000DF93C5E6D0E0FE01119280E0E537F80725
:1001F000D9F789E440E050E0BA0141DF14E68FEF1F
:100200002DDF8F3F19F41150D1F70DC08E3F59F4F7
:100210008FEF24DF899380E0C537D807C9F78FEFC8
:100220001DDF80E001C083E0DF91CF911F91089531
:10023000E0E297FF02C0C49801C0C49A2FEB3AEDE8
:1002400040E0215030404040E1F700C00000660F20
:10025000771F881F991F611571058105910511F0A0
:10026000E15039F7089505C060E070E080E090EA61
:10027000DFDF59DF8823C1F705C060E070E080E070
:1002800095EAD6DFABDF8823C1F70895809173002C
:1002900084FF05C060E070E080E090E803C060E0AB
:1002A00070E0CB01C5DF08950F931F93182FC8DEB0
:1002B000082F811789F415E08FEF90E7A2E08150B5
:1002C0009040A040E1F700C00000BADE801721F4A2
:1002D000115091F781E001C080E01F910F910895C6
:1002E000EF92FF920F931F93CF93DF9388B38560B4
:1002F00088BB87B38D6087BBC19AAEDEE5E8F0E0CE
:1003000080E090E059E887FF03C0482F452701C0EF
:10031000482F408327E030E0440F47FD4527215018
:100320003040D1F74193019621E08030920759F790
:10033000BC9A60E070E08BE494E87ADF94DFA6DF9B
:1003400081E0B2DF8823D9F38091730040E1F42E7D
:10035000F82284FF02C08F7E01C080618093730009
:100360008BE540E050E0BA018ADE882359F58EEF34
:1003700075DEC5E6D0E0EE248E0189916FDEEE2DAC
:10038000F0E0EE0FFF1FD8018C9190E0E827F927ED
:10039000EB57FF4FE080B0E0C437DB0769F78E2DE5
:1003A000880F8F5F5BDE8FEF59DE8FEF57DECFEF69
:1003B000DFEF8FEF53DE882319F42197D1F702C0C6
:1003C000209761F46FE070E0CB0132DF6FE070E006
:1003D000CB012EDF6FE070E0CB012ADF44DF80919C
:1003E000730080718F1561F463E070E0CB0120DF52
:1003F00063E070E0CB011CDF63E070E0CB0118DF4D
:1004000045DF06C08FE493EC0197F1F700C00000D0
:0E04100080E04ADF8823B1F392CFF894FFCF4B
:00000001FF
